{
  "contractName": "SimpleStorage",
  "abi": [
    {
      "constant": true,
      "inputs": [],
      "name": "getVersion",
      "outputs": [
        {
          "name": "",
          "type": "string"
        }
      ],
      "payable": false,
      "stateMutability": "pure",
      "type": "function"
    },
    {
      "constant": false,
      "inputs": [
        {
          "name": "x",
          "type": "uint256"
        }
      ],
      "name": "set",
      "outputs": [],
      "payable": false,
      "stateMutability": "nonpayable",
      "type": "function"
    },
    {
      "constant": true,
      "inputs": [],
      "name": "get",
      "outputs": [
        {
          "name": "",
          "type": "uint256"
        }
      ],
      "payable": false,
      "stateMutability": "view",
      "type": "function"
    }
  ],
  "bytecode": "0x608060405234801561001057600080fd5b506101c0806100206000396000f300608060405260043610610057576000357c0100000000000000000000000000000000000000000000000000000000900463ffffffff1680630d8e6e2c1461005c57806360fe47b1146100ec5780636d4ce63c14610119575b600080fd5b34801561006857600080fd5b50610071610144565b6040518080602001828103825283818151815260200191508051906020019080838360005b838110156100b1578082015181840152602081019050610096565b50505050905090810190601f1680156100de5780820380516001836020036101000a031916815260200191505b509250505060405180910390f35b3480156100f857600080fd5b5061011760048036038101908080359060200190929190505050610181565b005b34801561012557600080fd5b5061012e61018b565b6040518082815260200191505060405180910390f35b60606040805190810160405280600381526020017f302e310000000000000000000000000000000000000000000000000000000000815250905090565b8060008190555050565b600080549050905600a165627a7a723058205a7dc5ceb65771e800b2e215f840ecb5b953b75c21235533e0b6f6d9ac80fced0029",
  "source": "pragma solidity ^0.4.24;\n\ncontract SimpleStorage {\n  uint storedData;\n\n  function getVersion() public pure returns(string) {\n    return \"0.1\";\n  }\n\n  function set(uint x) public {\n    storedData = x;\n  }\n\n  function get() public view returns (uint) {\n    return storedData;\n  }\n}\n",
  "sourcePath": "D:\\truffle-react\\contracts\\SimpleStorage.sol",
  "compiler": {
    "name": "solc",
    "version": "0.4.24+commit.e67f0147.Emscripten.clang"
  },
  "schemaVersion": "2.0.1",
  "updatedAt": "2018-11-20T02:02:18.079Z"
}